:020000040801F1
:1080000000060120319301083D060A0841060A08CE
:10801000AD060A0841060A0879060A0833930108E2
:1080200033930108339301083393010841FA0C0894
:108030003393010833930108339301083393010804
:1080400033930108339301083393010833930108F4
:1080500033930108339301089D0C0D08C90C0D08DA
:10806000F50C0D08210D0D084D0D0D0899B80C08E3
:10807000C1B80C08EDB80C0819B90C0845B90C08C2
:108080006DB90C0899B90C083DB70C083393010879
:10809000339301083393010833930108790D0D08D8
:1080A0003393010833930108339301083393010894
:1080B000B90A0D0833930108339301084DBF0C082A
:1080C000A5C00C08339301083393010833930108CA
:1080D00033930108ADCD0C08C1CD0C08D5CD0C08EB
:1080E000E10D0D0833930108339301083393010820
:1080F000339301083393010833930108C5B90C0881
:108100003393010833930108339301083393010833
:10811000E9CD0C0833930108339301083393010828
:10812000F1B90C0819BA0C0845BA0C0871BA0C0858
:108130009DBA0C0833930108339301083393010867
:10814000339301083393010833930108B9010D08F3
:10815000C5BA0C08F1BA0C081DBB0C08FDCD0C0803
:1081600033930108339301083393010833930108D3
:1081700033930108339301083393010833930108C3
:10818000339301083393010811CE0C08339301088F
:1081900033930108339301083393010833930108A3
:1081A0003393010833930108339301083393010893
:1081B0003393010833930108339301083393010883
:1081C0003393010833930108339301083393010873
:1081D0003393010833930108339301083393010863
:1081E0003393010833930108339301083393010853
:1081F0003393010833930108339301083393010843
:1082000045B60108D5E30108CD6B020871440308A7
:10821000AD960408112F0608353206088953060862
:1082200099A2060881AA0608D1AD06087D2507088F
:1082300001E207081D0B0A0819B70A083DBE0B0822
:10824000DD0D0C08ED2A0C0859310C08E54F0C081F
:10825000B95E0C08058A0C08000000000000000050
:10826000D0400B1CD1409C46203AD3401843524288
:108270006346934018437047D0400B1C1141203A8D
:1082800003D49C461341184363465242934018431B
:10829000704700BF9140031C90409C46203A934099
:1082A000194352426346D3401943704781F000415D
:1082B00002E000BF83F0004330B54FEA41044FEACB
:1082C000430594EA050F08BF90EA020F1FBF54EA66
:1082D000000C55EA020C7FEA645C7FEA655C00F002
:1082E000E2804FEA5454D4EB5555B8BF6D420CDDD3
:1082F0002C4480EA020281EA030382EA000083EA56
:10830000010180EA020281EA0303362D88BF30BDF5
:1083100011F0004F4FEA01314FF4801C4CEA11314B
:1083200002D0404261EB410113F0004F4FEA0333AA
:108330004CEA133302D0524263EB430394EA050F35
:1083400000F0A780A4F10104D5F1200E0DDB02FAA4
:108350000EFC22FA05F2801841F1000103FA0EF238
:10836000801843FA05F359410EE0A5F120050EF1FE
:10837000200E012A03FA0EFC28BF4CF0020C43FA2F
:1083800005F3C01851EBE37101F0004507D54FF03C
:10839000000EDCF1000C7EEB00006EEB0101B1F58C
:1083A000801F1BD3B1F5001F0CD349085FEA3000D2
:1083B0004FEA3C0C04F101044FEA445212F5800FDD
:1083C00080F09A80BCF1004F08BF5FEA500C50F17A
:1083D000000041EB045141EA050130BD5FEA4C0C5D
:1083E000404141EB010111F4801FA4F10104E9D1E6
:1083F00091F0000F04BF01460020B1FA81F308BFDD
:108400002033A3F10B03B3F120020CDA0C3208DDA8
:1084100002F1140CC2F10C0201FA0CF021FA02F183
:108420000CE002F11402D8BFC2F1200C01FA02F1F3
:1084300020FA0CFCDCBF41EA0C019040E41AA2BF18
:1084400001EB0451294330BD6FEA04041F3C1CDAE0
:108450000C340EDC04F11404C4F1200220FA04F000
:1084600001FA02F340EA030021FA04F345EA0301AA
:1084700030BDC4F10C04C4F1200220FA02F001FA6C
:1084800004F340EA0300294630BD21FA04F02946EE
:1084900030BD94F0000F83F4801306BF81F4801187
:1084A0000134013D4EE77FEA645C18BF7FEA655CFA
:1084B00029D094EA050F08BF90EA020F05D054EACC
:1084C000000C04BF1946104630BD91EA030F1EBFD1
:1084D0000021002030BD5FEA545C05D140004941D5
:1084E00028BF41F0004130BD14F580043CBF01F5C8
:1084F000801130BD01F0004545F0FE4141F47001AE
:108500004FF0000030BD7FEA645C1ABF1946104688
:108510007FEA655C1CBF0B46024650EA013406BF89
:1085200052EA033591EA030F41F4002130BD00BF48
:1085300090F0000F04BF0021704730B54FF4806405
:1085400004F132044FF000054FF0000150E700BF86
:1085500090F0000F04BF0021704730B54FF48064E5
:1085600004F1320410F0004548BF40424FF00001D2
:108570003EE700BF42004FEAE2014FEA31014FEA15
:1085800002701FBF12F07F4393F07F4F81F0605164
:10859000704792F0000F14BF93F07F4F704730B5D3
:1085A0004FF4607401F0004521F0004120E700BF66
:1085B00050EA010208BF704730B54FF000050AE0ED
:1085C00050EA010208BF704730B511F0004502D5EE
:1085D000404261EB41014FF4806404F132045FEAF0
:1085E000915C3FF4DCAE4FF003025FEADC0C18BF95
:1085F00003325FEADC0C18BF033202EBDC02C2F18B
:10860000200300FA03FC20FA02F001FA03FE40EA1C
:108610000E0021FA02F11444C1E600BF70B54FF01C
:10862000FF0C4CF4E06C1CEA11541DBF1CEA1355FE
:1086300094EA0C0F95EA0C0F00F0DEF82C4481EA66
:10864000030621EA4C5123EA4C5350EA013518BF86
:1086500052EA033541F4801143F4801338D0A0FB73
:1086600002CE4FF00005E1FB02E506F00042E0FB20
:1086700003E54FF00006E1FB03569CF0000F18BF26
:108680004EF0010EA4F1FF04B6F5007F64F54074CE
:1086900004D25FEA4E0E6D4146EB060642EAC62161
:1086A00041EA55514FEAC52040EA5E504FEACE2ECE
:1086B000B4F1FD0C88BFBCF5E06F1ED8BEF1004FD1
:1086C00008BF5FEA500E50F1000041EB045170BD4D
:1086D00006F0004646EA010140EA020081EA030191
:1086E000B4EB5C04C2BFD4EB0C0541EA045170BD8D
:1086F00041F480114FF0000E013C00F3AB8014F107
:10870000360FDEBF002001F0004170BDC4F100044F
:10871000203C35DA0C341BDC04F11404C4F12005D0
:1087200000FA05F320FA04F001FA05F240EA02002B
:1087300001F0004221F0004110EBD37021FA04F661
:1087400042EB06015EEA430E08BF20EAD37070BD1B
:10875000C4F10C04C4F1200500FA04F320FA05F07A
:1087600001FA04F240EA020001F0004110EBD3707C
:1087700041F100015EEA430E08BF20EAD37070BDEC
:10878000C4F1200500FA05F24EEA020E20FA04F3C5
:1087900001FA05F243EA020321FA04F001F0004174
:1087A00021FA04F220EA020000EBD3705EEA430EE5
:1087B00008BF20EAD37070BD94F0000F0FD101F014
:1087C0000046400041EB010111F4801F08BF013C4D
:1087D000F7D041EA060195F0000F18BF704703F08B
:1087E0000046520043EB030313F4801F08BF013D12
:1087F000F7D043EA0603704794EA0C0F0CEA1355CE
:1088000018BF95EA0C0F0CD050EA410618BF52EA87
:108810004306D1D181EA030101F000414FF000008D
:1088200070BD50EA410606BF1046194652EA43069B
:1088300019D094EA0C0F02D150EA013613D195EA0F
:108840000C0F05D152EA03361CBF104619460AD157
:1088500081EA030101F0004141F0FE4141F4700161
:108860004FF0000070BD41F0FE4141F4780170BD51
:1088700070B54FF0FF0C4CF4E06C1CEA11541DBFB6
:108880001CEA135594EA0C0F95EA0C0F00F0A7F8B8
:10889000A4EB050481EA030E52EA03354FEA0131E5
:1088A00000F088804FEA03334FF0805545EA1313F8
:1088B00043EA12634FEA022245EA111545EA1065C0
:1088C0004FEA00260EF000419D4208BF964244F157
:1088D000FD0404F5407402D25B084FEA3202B61A76
:1088E00065EB03055B084FEA32024FF480104FF44A
:1088F000002CB6EB020E75EB030E22BFB61A7546BE
:1089000040EA0C005B084FEA3202B6EB020E75EB50
:10891000030E22BFB61A754640EA5C005B084FEAB8
:108920003202B6EB020E75EB030E22BFB61A754685
:1089300040EA9C005B084FEA3202B6EB020E75EB90
:10894000030E22BFB61A754640EADC0055EA060E51
:1089500018D04FEA051545EA16754FEA06164FEA94
:10896000C30343EA52734FEAC2025FEA1C1CC0D140
:1089700011F4801F0BD141EA00014FF000004FF0CD
:10898000004CB6E711F4801F04BF01430020B4F18E
:10899000FD0C88BFBCF5E06F3FF6AFAEB5EB030C46
:1089A00004BFB6EB020C5FEA500C50F1000041EB43
:1089B000045170BD0EF0004E4EEA113114EB5C0410
:1089C000C2BFD4EB0C0541EA045170BD41F48011E3
:1089D0004FF0000E013C90E645EA060E8DE60CEAEB
:1089E000135594EA0C0F08BF95EA0C0F3FF43BAF08
:1089F00094EA0C0F0AD150EA01347FF434AF95EABF
:108A00000C0F7FF425AF104619462CE795EA0C0FA2
:108A100006D152EA03353FF4FDAE1046194622E76F
:108A200050EA410618BF52EA43067FF4C5AE50EA49
:108A300041047FF40DAF52EA43057FF4EBAE12E739
:108A40004FF0FF3C06E000BF4FF0010C02E000BF1A
:108A50004FF0010C4DF804CD4FEA410C7FEA6C5CFD
:108A60004FEA430C18BF7FEA6C5C1BD001B050EAA0
:108A7000410C0CBF52EA430C91EA030F02BF90EA8B
:108A8000020F0020704710F1000F91EA030F58BF4A
:108A9000994208BF90422CBFD8176FEAE37040F0AC
:108AA000010070474FEA410C7FEA6C5C02D150EA4A
:108AB000013C07D14FEA430C7FEA6C5CD6D152EA05
:108AC000033CD3D05DF8040B704700BF84461046CA
:108AD00062468C461946634600E000BF01B5FFF7C9
:108AE000B7FF002848BF10F1000F01BD4DF808ED99
:108AF000FFF7F4FF0CBF012000205DF808FB00BF6A
:108B00004DF808EDFFF7EAFF34BF012000205DF8C3
:108B100008FB00BF4DF808EDFFF7E0FF94BF012010
:108B200000205DF808FB00BF4DF808EDFFF7CEFF11
:108B300094BF012000205DF808FB00BF4DF808ED50
:108B4000FFF7C4FF34BF012000205DF808FB00BF21
:108B50004FEA410C7FEA6C5C02D150EA013C0AD139
:108B60004FEA430C7FEA6C5C02D152EA033C02D12B
:108B70004FF0000070474FF0010070474FEA41028C
:108B800012F5001215D211D56FF47873B3EB62525F
:108B900012D94FEAC12343F0004343EA505311F086
:108BA000004F23FA02F018BF404270474FF0000018
:108BB000704750EA013005D111F0004008BF6FF056
:108BC000004070474FF00000704700BF4A0011D2CC
:108BD00012F5001211D20DD56FF47873B3EB625217
:108BE0000ED44FEAC12343F0004343EA505323FA23
:108BF00002F070474FF00000704750EA013002D198
:108C00004FF0FF3070474FF0000070474FEA4102CD
:108C1000B2F1E04324BFB3F5001CDCF1FE5C0DD9DA
:108C200001F0004C4FEAC0024CEA5070B2F1004F24
:108C300040EB830008BF20F00100704711F0804F27
:108C400021D113F13872BCBF01F00040704741F4EC
:108C500080114FEA5252C2F11802C2F1200C10FAF0
:108C60000CF320FA02F018BF40F001004FEAC123D4
:108C70004FEAD32303FA0CFC40EA0C0023FA02F378
:108C80004FEA4303CCE77FEA625307D150EA01334E
:108C90001EBF4FF0FE4040F44000704701F000401E
:108CA00040F0FE4040F40000704700BF80F00040FC
:108CB00002E000BF81F0004142001FBF5FEA4103B4
:108CC00092EA030F7FEA226C7FEA236C6AD04FEAB4
:108CD0001262D2EB1363C1BFD218414048404140F9
:108CE000B8BF5B42192B88BF704710F0004F40F4AB
:108CF000000020F07F4018BF404211F0004F41F4C7
:108D0000000121F07F4118BF494292EA030F3FD092
:108D1000A2F1010241FA03FC10EB0C00C3F12003A5
:108D200001FA03F100F0004302D5494260EB400034
:108D3000B0F5000F13D3B0F1807F06D340084FEA9F
:108D4000310102F10102FE2A51D2B1F1004F40EB94
:108D5000C25008BF20F0010040EA030070474900FC
:108D600040EB000010F4000FA2F10102EDD1B0FAC7
:108D700080FCACF1080CB2EB0C0200FA0CF0AABFBC
:108D800000EBC25052421843BCBFD040184370475A
:108D900092F0000F81F4000106BF80F40000013260
:108DA000013BB5E74FEA41037FEA226C18BF7FEA37
:108DB000236C21D092EA030F04D092F0000F08BF79
:108DC0000846704790EA010F1CBF0020704712F060
:108DD0007F4F04D1400028BF40F00040704712F19F
:108DE00000723CBF00F50000704700F0004343F004
:108DF000FE4040F4000070477FEA226216BF08463A
:108E00007FEA23630146420206BF5FEA412390EAFC
:108E1000010F40F4800070474FF0000304E000BFF2
:108E200010F0004348BF40425FEA000C08BF7047A3
:108E300043F0964301464FF000001CE050EA010267
:108E400008BF70474FF000030AE000BF50EA01027C
:108E500008BF704711F0004302D5404261EB410169
:108E60005FEA010C02BF84460146002043F0B6438E
:108E700008BFA3F18053A3F50003BCFA8CF2083AB3
:108E8000A3EBC25310DB01FA02FC634400FA02FCBC
:108E9000C2F12002BCF1004F20FA02F243EB0200C3
:108EA00008BF20F00100704702F1200201FA02FC25
:108EB000C2F1200250EA4C0021FA02F243EB020018
:108EC00008BF20EADC7070477BB972B90029BEBFC9
:108ED00000204FF0004106E008BF00281CBF6FF0E3
:108EE00000414FF0FF3000F021BAADF1080C6DE900
:108EF00004CE002909DB002B1ADB00F0A9F8DDF80D
:108F000004E0DDE9022304B07047404261EB410117
:108F1000002B1BDB00F09CF8DDF804E0DDE9022308
:108F200004B0404261EB4101524263EB430370479E
:108F3000524263EB430300F08BF8DDF804E0DDE917
:108F4000022304B0404261EB41017047524263EB9F
:108F5000430300F07DF8DDF804E0DDE9022304B00E
:108F6000524263EB4303704753B94AB9002908BF23
:108F700000281CBF4FF0FF314FF0FF3000F0D6B992
:108F8000ADF1080C6DE904CE00F062F8DDF804E004
:108F9000DDE9022304B07047430803F05533C01ADB
:108FA000830803F0333300F03330184400EB101023
:108FB00000F00F3000EB002000EB0040000E704787
:108FC00080EA104080EA102080EA101046F69613DE
:108FD00000F00F0043FA00F000F00100704700BFFE
:108FE00007EE900AF5EEC07AF1EE10FA01D400F027
:108FF00009B808B580F0004000F004F8404261EB89
:10900000410108BDD0B5FFF7B5FA00220E4B064668
:109010000F46FFF703FBFFF7D9FD0446FFF788FA79
:1090200000220A4BFFF7FAFA02460B463046394651
:10903000FFF740F9FFF7CAFD2346002242EA00028B
:1090400010461946D0BD00BF0000F03D0000F041C1
:109050002DE9F0478C460D460446089E002B51D161
:109060008A4217466DD9B2FA82FEBEF1000F0BD0CC
:10907000CEF1200C01FA0EF520FA0CFC02FA0EF7E4
:109080004CEA050C00FA0EF44FEA174A250CBCFB1B
:10909000FAF81FFA87F90AFB18CC45EA0C4508FBD9
:1090A00009F3AB420AD9ED1908F1FF3280F02381B0
:1090B000AB4240F22081A8F102083D44ED1AA4B26F
:1090C000B5FBFAF00AFB105544EA054400FB09F928
:1090D000A14509D9E41900F1FF3380F00A81A145C7
:1090E00040F2078102383C44A4EB090440EA0840FE
:1090F0000021002E61D024FA0EF400233460736046
:10910000BDE8F0878B4207D9002E54D0002186E8B5
:1091100021000846BDE8F087B3FA83F1002940F04A
:109120008E80AB4202D3824200F2FA80841A65EB51
:1091300003050120AC46002E3FD086E81010BDE8A4
:10914000F08712B90127B7FBF2F7B7FA87FEBEF135
:10915000000F34D1EB1B3A0C1FFA87FC0121B3FB43
:10916000F2F8250C02FB183345EA03450CFB08F323
:10917000AB4207D9ED1908F1FF3002D2AB4200F241
:10918000D1808046ED1AA3B2B5FBF2F002FB105578
:1091900043EA05440CFB00FCA44507D9E41900F19F
:1091A000FF3302D2A44500F2B8801846A4EB0C04A9
:1091B00040EA08409DE731463046BDE8F087CEF1F1
:1091C000200405FA0EF307FA0EF720FA04F83A0C19
:1091D00025FA04F448EA0308B4FBF2F14FEA184513
:1091E00002FB11441FFA87FC45EA044501FB0CF31E
:1091F000AB4200FA0EF409D9ED1901F1FF3080F00D
:109200008A80AB4240F2878002393D44EB1A1FFA54
:1092100088F5B3FBF2F002FB103345EA034500FB8F
:109220000CF3AB4207D9ED1900F1FF386FD2AB4216
:109230006DD902383D44EB1A40EA01418FE7C1F194
:10924000200722FA07F88B4005FA01F448EA0303E5
:1092500020FA07FE4FEA134CFD404EEA040EB5FB20
:10926000FCF94FEA1E440CFB19551FFA83F844EA37
:10927000054509FB08F4AC4202FA01F200FA01FAD2
:1092800008D9ED1809F1FF3043D2AC4241D9A9F118
:1092900002091D442D1B1FFA8EFEB5FBFCF00CFBD2
:1092A00010554EEA054400FB08F8A04507D9E4181C
:1092B00000F1FF3529D2A04527D902381C4440EAE5
:1092C0000940A4EB0804A0FB02894C45C6464D4664
:1092D00015D312D056B1BAEB0E0364EB050404FAB1
:1092E00007F7CB401F43CC40376074600021BDE8D6
:1092F000F0871846F8E69046E0E6C245EAD2B8EBB9
:10930000020E69EB03050138E4E72846D7E740463B
:1093100091E78146BEE7014678E702383C4445E7DD
:10932000084608E7A8F102083D442BE7704700BF54
:1093300002E000F000F8FEE772B6394880F30888D2
:10934000384880F3098838484EF60851CEF20001BB
:10935000086040F20000CCF200004EF63471CEF20C
:1093600000010860BFF34F8FBFF36F8F40F2000022
:10937000C0F2F0004EF68851CEF200010860BFF353
:109380004F8FBFF36F8F4FF00000E1EE100A4EF6E3
:109390003C71CEF200010860062080F31488BFF310
:1093A0006F8FB6F08DFBB7F00BFB4FF055301F49B8
:1093B0001B4A91423CBF41F8040BFAE71C49194A89
:1093C00091423CBF41F8040BFAE71A491A4A1B4B79
:1093D0009A423EBF51F8040B42F8040BF8E7002014
:1093E0001749184A91423CBF41F8040BFAE7B6F01E
:1093F000ABFBB7F04FFB144C144DAC4203DA54F8FE
:10940000041B8847F9E702F00DF9114C114DAC42ED
:1094100003DA54F8041B8847F9E7B6F093BB000061
:109420000006012000220120008001080000012028
:109430000006012000B20F0800220120D4290120DB
:10944000D829012020340220008201085882010816
:1094500058820108588201082DE9F04F2DED108A3D
:10946000C1F80CD0D0F80CD0BDEC108ABDE8F08F5C
:10947000002383F311882846A0470020B5F03EFC66
:10948000B5F038FA00DFFEE701F0FF01102A2BDB10
:1094900010F0070F08D010F8013B013A8B422DD095
:1094A00010F0070F42B3F6D1F0B441EA012141EACE
:1094B000014122F007047FF000070023F0E8025684
:1094C000083C85EA010586EA010685FA47F5A3FA14
:1094D00087F586FA47F6A5FA87F68EB9EED1F0BC85
:1094E00001F0FF0102F0070232B110F8013B013A2E
:1094F00083EA010313B1F8D10020704701387047A7
:10950000002D06BF35460338073815F0010F07D187
:10951000013015F4807F02BF013015F4C03F0130E7
:10952000F0BC0138704700BF10F8012B11F8013B67
:10953000012A28BF9A42F7D0D01A7047034613F881
:10954000012B002AFBD1181A01387047074A1378FB
:109550000133DBB21D2B98BF137003684FF000017D
:1095600088BF11709B6888BF012118470022012025
:10957000F0B58368012B91B005460E4666D099067A
:1095800064D4012011B0F0BD93ED017AD2ED0A7AD6
:10959000B4EEE77AF1EE10FA00F3908041F6920211
:1095A000A25E002A07DC534B3246202128467EF07B
:1095B000E5F80020E6E793F8B8210D2A9DBF4FF4A7
:1095C0002153D340DB430123DA077DD44A4BEBE739
:1095D0004A480EF0F3FD01281BD1494B186876F07C
:1095E00051FA012806D0022811D090B9454B0093BA
:1095F000454B1AE042F2D053E35CDB0705D5192155
:10960000424849F081FF002868D1414BEFE7414BC8
:10961000EDE743F27C5003AF32233A463E492058EF
:1096200074F0FAFB38B93D4B0097324620212846AA
:109630007EF0A4F8BDE743F2785032233A46384929
:10964000205872F0A3FF00289CD1ECE7354C41F67E
:109650009603E3567BB142F22C5241F69803A2588E
:10966000E35EB2F90A1003F10A02914228DD40F2EA
:109670008D32934224DD41F68403E356022B05D15B
:10968000294B3246202128467EF078F841F65603D1
:1096900041F65832E35AA3F57A739BB2934211D83C
:1096A00043F27853E258214BD2ED097A93ED007AD8
:1096B000B4EEE77AF1EE10FA7FF766AF1C4B73E772
:1096C0001C4B71E71C4B6FE742F64C13E05878F0E7
:1096D00061FE00287FF47CAF184B65E741F66C0310
:1096E00019210A48E75E49F01FFF874291DD144BBC
:1096F0007DE700BFE87C0D08C67D0D08846701206A
:10970000605F0120387D0D08137D0D08D8360120DB
:10971000E67D0D085E7D0D086F7D0D08737D0D08DB
:10972000857D0D08E0290120C07C0D08A84201209C
:10973000AC7D0D08897D0D089C7D0D08FD7C0D0814
:10974000487D0D0810B542F64C13074AD35893F8DC
:109750006B4024B9054A7EF033F9204610BD202124
:109760007DF0FAFFF9E700BFE02901208C7C0D08AD
:1097700013B58368012B0A4604D05B0602D401208E
:1097800002B010BD0B4B41F6960159560029F6D098
:1097900042F22C515C5841F69801595EB4F90630FA
:1097A0009942ECDD044B00934021044B7DF0E6FF31
:1097B0000020E5E7E0290120CC7E0D0877F40E08B3
:1097C00070B58EB005460E46322201A9094865F0F3
:1097D00073F9044640B99DF9043043B9064B074A72
:1097E000314628467EF0ECF820460EB070BD01AB45
:1097F000F5E700BF844D0120E47E0D0877F40E08E4
:109800002DE9F04343F2A473DFF80881064658F8C7
:109810000300036899B09B680F469847814617F08C
:10982000FFFA0546322200210BA8BAF0D7FC2B68BC
:109830000BAA9C6A494632232846A047044648B9E9
:109840000BAB2F4A394630467EF0BAF8204619B0A5
:10985000BDE8F0832B4864F0B7FEB9F1000F0AD0E1
:10986000404613F069F978B9274A394630467EF008
:10987000A7F80024EAE710F0060FE7D0404613F0FF
:109880005BF908B9214AF0E703A9284617F0DAF98D
:1098900028B19DF80D305B0601D51D4AE5E7002390
:1098A000089309930A932B6807AA0DF120090192E6
:1098B000CDF80090D3F8E88005AA06AB04A92846A5
:1098C000C047DFF85C80D8ED007AF5EEC07AF1EEA3
:1098D00010FA09DD48462DF087FDD8ED007AB4EE88
:1098E000E70AF1EE10FA08DA05F59271094804F07A
:1098F000B9FF0028AAD0084AB7E7084AB5E700BF71
:10990000507E0D08BC5F0120597E0D08707E0D0849
:10991000967E0D08E0290120A47E0D08B67E0D0874
:109920009442012008B5064A42F64513D35C9B07D2
:1099300004D5044A7EF044F8002008BD012008BD8B
:10994000E0290120F87D0D0870B5836813F0210F20
:109950008EB005460E460FD07FF04EF8044658B143
:109960003222002101A8BAF039FC2046322201A996
:109970007FF00AF8044608B1012405E001AB044A6F
:10998000314628467EF01CF820460EB070BD00BF60
:1099900077F40E0870B543F2A4730B4C0546E058FB
:1099A0000368DB680E46984710B10124204670BD5D
:1099B000204613F0D3F804460028F6D1034A314676
:1099C00028467DF0FDFFF1E7E0290120DC7B0D0852
:1099D00070B505460E46FFF713FF064B0446D871D7
:1099E00031462846FFF7D6FF002814BF2046002046
:1099F00070BD00BFB56C01202DE9F04142F64C125C
:109A0000304FBA5892F8694005460E46002C4FD1A7
:109A100058F0DAF9202158F05BF830B158F0D4F959
:109A20001F2158F055F8002845D142F62613FB5C5B
:109A300003F01403142B04D1234A314628467DF049
:109A4000BFFFAB6833B92B68314628461B6BBDE8B6
:109A5000F0411847314628467EF056FC3146044610
:109A60002846FFF785FD314604402846FFF76AFE89
:109A7000E4B2044031462846FFF77AFE31460440FE
:109A80002846FFF79DFE314604402846FFF74AFF6F
:109A9000314604402846FFF757FF31460440284628
:109AA000FFF778FF3146044028467EF0D9FD044098
:109AB0002046BDE8F081054A314628467DF080FF0A
:109AC000F6E700BFE0290120087E0D08207E0D0882
:109AD00010B5FFF791FF054942F624128C5C60F344
:109AE00004148C54024A907110BD00BFE02901207B
:109AF000B56C012007B5044877F088FD00F001003F
:109B000003B05DF804FB00BF385F0120F7B50546E0
:109B10000E467DF09FFE044620B1AB68012B04D0B9
:109B20009A0702D4204603B0F0BD144877F06EFDCA
:109B3000C0F3072010F00107F4D18307F2D50F48D6
:109B400077F00EFD43F224530D4AD35807EE903AB6
:109B5000F8EEE77A30EE670ADFED0A7AB0EEC00A77
:109B6000B4EEE70AF1EE10FADCDD074B32460221D3
:109B700028467DF003FE3C46D4E700BF385F012055
:109B8000E02901200000C842AC7C0D082DE9F0411D
:109B9000074690B088467DF08DFFBB68012B0546D7
:109BA00005D05B0703D4284610B0BDE8F08103ACB4
:109BB000322200212046BAF011FB1DF01DFF322297
:109BC00021461DF049FD06460028ECD10094044BC7
:109BD0004246042138467DF0D1FD3546E3E700BF1B
:109BE00077F40E08F8B504460F467EF003F9A36833
:109BF000012B054603D0DB0601D42846F8BD2046DC
:109C0000FFF778FF06460028F7D1044B3A461021AB
:109C100020467DF0B3FD3546EFE700BF787C0D08A8
:109C200038B504460D467DF063FD98B1A368012B5D
:109C30000AD01B0608D438BD2046074B2A4680218F
:109C40007DF09CFD002038BD42F6A1630349CB5C4A
:109C5000002BF1D138BD00BF3C7E0D08E02901206A
:109C6000F0B542F22453124C85B0E358009342F20F
:109C700028536A46E358019342F22C530646E358B0
:109C8000029342F230530F46E35803937EF03EFCBA
:109C90003946054630467DF099FD42F624122840AB
:109CA000A35C60F3C303C3F3C000A35405B0F0BDCD
:109CB000E02901202DE9F84306468846FFF7A0FD7C
:109CC0001D4F044610B90024FC7113E01B4D43F2F4
:109CD000A473E85803689B6898478146184864F065
:109CE00073FC2B46B9F1000F07D110F0060F04D119
:109CF0000123FB712046BDE8F883B268012A01D038
:109D00001207F5D593F85023842101FB023241F666
:109D10008601B2F8DE215B5E9A4206DD094B4246BF
:109D2000082130467DF02AFDCDE7414630467DF0E2
:109D3000ABFD0028DCD1C6E7B56C0120E02901208D
:109D4000BC5F0120687C0D0870B588B005460E46E2
:109D50007DF056FE044620B1AB68012B04D09B0673
:109D600002D4204608B070BD43F29863184AD35C11
:109D7000002BF6D007AA06A916485FF023FE00289C
:109D8000EFD0DDED077A9FED147AF4EEC77AF1EEAD
:109D900010FAE6D80CA3D3E9002317EE900ACDE918
:109DA0000423FEF7E7FBDDED067A0C4BFDEEE77AC8
:109DB000CDE90201CDED007A3246202128467DF022
:109DC000DDFC0024CDE700BF000000403333E33F5B
:109DD000E02901202C4401209A99193FFC7E0D08AE
:109DE0002DE9F3478846054617F01AF80368D3F8BB
:109DF000C83081469847044640B9624A0121284646
:109E00007DF0DEFD204602B0BDE8F0875E4F42F6F1
:109E10002C1308F1FF3417F803A043F2A473614236
:109E2000F858036861411B6998473E46044608B9E3
:109E3000564AE3E701212846FFF784FC0446002840
:109E4000E0D042F62613FB5C03F01403142B05D17B
:109E50004F4A012128467DF0B3FD5EE057F0B4FF84
:109E60001F2157F035FE4B4BB8B91870AB68002B6B
:109E7000C8D0012B2FD0DA062DD4AB68012B4ED0E1
:109E80005B064CD4444B1B68D86C0368DB6998476D
:109E90000128014618D1414ADCE71B78002BE5D0A8
:109EA0003F4AD6E743F2A473F0580368DB6898474B
:109EB00010B9BAF10B0FE5D142F22C53F358B3F9B4
:109EC0000830002B51DCDDE74146284602B0BDE8F2
:109ED000F0477EF0EBB8D9ED4F7A99ED4E0A20EEBF
:109EE000270AB7F067FBDFED2F7A41F6560320EE25
:109EF000270AF35EDFED2C7A20EE270A07EE903A70
:109F0000F8EEE77AB4EEE70AF1EE10FAB5DD274B8A
:109F10000122102128467DF031FC002472E741F631
:109F20009603F3564BB142F22C5341F69802F35884
:109F3000B25EB3F906309A4220DCB8F1010F03D1CA
:109F40000AF0EF03042B9DD042F22C530E48F35835
:109F5000B3F9083000EE103AB8EEC00A00F0B6FAD5
:109F6000B5EEC00AF1EE10FA9CDD114B0093114BD7
:109F70000122402128467DF001FCCEE70C4B0093E6
:109F80000D4BF5E7F07B0D08E0290120017C0D0861
:109F9000087E0D0840760120586B0120477C0D0893
:109FA000127C0D08E02E65420000C8422A7C0D0894
:109FB0003E7C0D08327C0D08557C0D082DE9F041E2
:109FC0004F4E3378B046002B40F098804D4C42F60F
:109FD0004C1501276559377095F869501DB13370DC
:109FE0002846BDE8F0817EF0DBFB054630B9464AE5
:109FF0003070137843F001031370F1E74DF084FCE7
:10A0000039464CF09BFE204606F0DEF93F4B1F71AF
:10A010000C27013F04D044F01BF944F0B7F8F8E7EF
:10A02000384800F01DFF16F0FBFE42F674138269FB
:10A03000E25090F83431DA0706464ED40368D3F87C
:10A04000E03098474DF060FC3C214DF0BBFB304BBD
:10A0500000221A6000212B4800F09AFF294812F0D4
:10A060006BFD01462B487CF077F896F8803043F082
:10A07000040386F88030284B1B680121D86C26F039
:10A08000FBFE204811F090FB42F64C130121E058F2
:10A0900079F09AF84DF038FC41F64C030026E25C6A
:10A0A00042F62C13E15C4CF0D7FF164806F07EF91F
:10A0B0004AF080FB49F098FF88F8006086F03AFB90
:10A0C00043F28C53E050154B9A7842F020029A707C
:10A0D000DA7866F34102DA7082E79B07BAD4394630
:10A0E000084804F067FC0E4877F03AFADFED0D7A85
:10A0F000074B20EE270A83ED000AABE700256FE748
:10A10000D8290120E0290120D06C0120B56C012064
:10A1100014530120184C0120586B012004530120D6
:10A12000385F01200AD7233C2DE9F04342F64C1357
:10A130003B4DEB5893F8693085B0002B6DD05AB188
:10A14000012909D142F62413EB56002B04DB00272A
:10A15000384605B0BDE8F0837EF080FB0746002856
:10A16000F5D016F05DFE06461DF046FC33688146CC
:10A17000D3F8A43030469847D8B199F95C30022B17
:10A1800017D100244FF0000801AA21463046CDF82F
:10A190000480CDF80880CDF80C8016F085FD20B144
:10A1A00001AA214648461DF063F80134E4B2032CAD
:10A1B000EAD143F2A4721B4BA858984229D109F066
:10A1C000C9FD0121164806F0D9FA0121144806F00C
:10A1D00019FA42F64C130021E85878F0F5FF1248BE
:10A1E0002EF0FCFF4DF090FB00214CF0A7FD96F8FF
:10A1F00080306FF3820386F880300C4B1B6800219F
:10A20000D86C26F039FE0A4B9A786FF345129A7093
:10A210009EE7184609F0AAFDD3E7012798E700BF9B
:10A22000E0290120A064012040620120586B012038
:10A2300004530120014864F049BA00BFBC5F01200B
:10A2400010B542F62412835CC3F340148C420AD04A
:10A2500061F34513835431B14DF056FB0F21BDE836
:10A2600010404DF0AFBA10BD38B542F65C1304464D
:10A27000C3588B420D4613D0012912D0022917D0A2
:10A2800059B94DF041FB1B214DF09CFA0D4A04F5E4
:10A290001C50062114304EF0DFFE42F65C13E550F0
:10A2A00038BD4DF031FB1A214DF08CFA064AEEE72D
:10A2B000012100F06DFE4DF027FB1D214DF082FACB
:10A2C000024AE4E7707F0D08857F0D08807F0D0846
:10A2D00042F6451238B5835C0C4603F00101A142F9
:10A2E00008D064F300038354DB0704D405F03EFD7B
:10A2F000024B9C7238BD05F087FEF9E7B56C012072
:10A3000042F64513C25C61F34102C254014B19731A
:10A31000704700BFB56C012010B5044657F054FDDE
:10A32000202157F0D5FB04F52453003093F8262064
:10A3300018BF012060F3820283F8262010BD0000C0
:10A3400038B52DED028B42F645130446C35CDA079F
:10A3500008EE101A3ED442F62513C35C5B0739D5CC
:10A3600000F5D355B7EE001A0E20DFED1C0A95ED6F
:10A37000060A29F0FFFDDFED1A7A85ED060AF0EEF8
:10A38000C06AF4EEE76A04F5C654F1EE10FAB0EED6
:10A39000407AF8EEC87A04F1040406D594ED000A78
:10A3A00020EE270ABDEC028B38BD9FED0E6AC7EE8A
:10A3B000866AF7EE007A77EEC07A27EEA60A66EE96
:10A3C000A67A67EEA66AD4ED007AA7EE260A20EEFA
:10A3D000060AE5E79FED010AE4E700BF0000000080
:10A3E0000000003400A08C4508B542F64C13C0585C
:10A3F0000368DB689847F6EE007A20EE270ADFED67
:10A40000057AB4EE670AF1EE10FA48BFB0EE670ABB
:10A4100008BD00BF0000000038B52DED028B43F2EF
:10A4200078530546C358DFED110A93ED2B0A7B20C4
:10A43000B7EE001A29F09EFD43F27C53B0EE408A3D
:10A44000EC5842F64C132834E8580368DB68984708
:10A4500038EE400ABDEC028BDFED057A204620EE97
:10A46000270ABDE8384068F0D5BF00BF00000000F3
:10A4700000007A4400F5965300F59650D3ED025A49
:10A48000D2ED007AD0ED056A91ED006A26EEE77A0A
:10A4900067EEA57AA6EE257AE6EE267A81ED007AB9
:10A4A000C2ED007A7047000042F20833C35E3BB948
:10A4B00041F69203C05E0028B8BF404280B27047A8
:10A4C00083EAE370A0EBE370F8E7000070B52DEDD0
:10A4D000068B42F645130446C15C11F00105B0EE4F
:10A4E000408A04D09FED2B0ABDEC068B70BD42F66E
:10A4F0002513C35C5B07F5D541F69A0611F082FA85
:10A50000A35F9FED259ADFED230A01EE103A07EED7
:10A51000900AF8EEC19A5D20B0EE491AB0EE480AF2
:10A52000F8EEE78A29F026FD38EEE9AA4FF4C87262
:10A530002946A05FB0EE408A29F052FDB4EEC8AAC9
:10A54000F1EE10FAA0530DDD2046FFF7ADFF07EE48
:10A55000900A38EE4A8AB8EEE70A20EE088A88EEBA
:10A560000A0AC1E738EEA91AB4EEC81AF1EE10FAD9
:10A57000B8D541F6920338EE418AE35E00EE103A18
:10A58000B8EEC00A39EE411A20EE088A88EE010AB8
:10A59000AAE700BF0000000000007A4438B52DEDA6
:10A5A000028B42F64C150446435993F8693023B1A7
:10A5B00042F62413C356002B02DABDEC028B38BDE1
:10A5C00043F2A473C0580368DB6898470028F4D1AD
:10A5D00042F62C13E35C0B2BEFD043F27C539FED40
:10A5E0002C7AE358D3ED587AF0EEE77AF4EEC77A96
:10A5F000F1EE10FAE1D5605938304EF003F8034619
:10A60000B7EE001A7620DFED230A93ED000A29F059
:10A61000B1FCB5EEC00AF1EE10FACEDD04F55550EE
:10A62000183076F0A1FFDFED1C7AB0EEC00AB4EE70
:10A63000E70AF1EE10FAC0D541F29813E35808EE9C
:10A64000103A43F27853B8EEC88AE05803685B6F5B
:10A65000984738EE400ABDEEC00A10EE103A002BC3
:10A66000B8BF5B42B3F5FA7FA7DA41F29C1340F220
:10A67000E632E35803F2F31393429ED8BDEC028B0B
:10A6800060599FED060ABDE8384077F0C3BE00BFB1
:10A690000000003400000000000070420AD7233C94
:10A6A000002070470020704700207047002070474E
:10A6B0007047000042F62C13C05C704703480860E6
:10A6C0002F21117008221A60704700BFD87F0D0833
:10A6D00010B543F2A4730C46C05803681B6C98472E
:10A6E00007EE900A9FED047AF8EE677A012067EE94
:10A6F000877AC4ED007A10BD0AD7233C10B543F227
:10A70000A4730C46C0580368DB6B984707EE900AA9
:10A710009FED047AF8EEE77A012067EE877AC4EDC0
:10A72000007A10BD0AD7233C10B543F2A4730C463F
:10A73000C05803685B6C9847DFED037A20EE270A68
:10A74000012084ED000A10BD0AD7233C03685B6D2D
:10A750001847000069F092BE58F066BD7EF030B92F
:10A7600062F002B812F038BC5BF0E0BE11F04CBAF7
:10A7700011F0DEB911F0B2B949F032BF27F052BB87
:10A780004CF00EBC18F0FEBB56F020BA55F0F2B8F3
:10A7900010F09EBD11F098BB06F05CB905F0CEBD7F
:10A7A00005F0A4B804F0BEBF43F0F0BC10F022BF27
:10A7B000443063F0B9BE000016F0B8BF58F0EEBFE9
:10A7C0000EF0A6BBFFF7EABE10F0CEBE7CF012B9C9
:10A7D0005EF03EBF11F042BA03F07ABA10F048BE04
:10A7E00010F0BEBD57F076BA46F02EB920F0ACB9E5
:10A7F00005F090BC08F0C2BF09F014B909F0A6B882
:10A8000070B51A4B036042F21473194AC25042F6F3
:10A81000D4030446C05808B119F038FE154B236024
:10A8200041F63C03E21812793AB9E5582DB12846B1
:10A8300026F080FB284619F02DFE04F585506FF0B8
:10A84000FDFA04F6A87058F0BFFA0B4BC4F81039A3
:10A8500004F52A6604F6BC25AE4204D01C3D284609
:10A860004DF0A6FCF8E7204670BD00BFD0830D0870
:10A87000B4880E0850700E086C3A0E0810B52DED15
:10A88000028B43F2A4730446C0580368DB69B0EE40
:10A89000408A984720B90024BDEC028B204610BDA9
:10A8A0009FED080A04F5715028EE000A14300BF0F1
:10A8B00077F904460028EED001210348FFF7C0FCD9
:10A8C000EAE700BF0000C842E029012037B543F2A3
:10A8D000A4730446C0580368DB690D46984760B10D
:10A8E000DFED070A002304F571500093B0EE600A13
:10A8F0001A46294614300BF0F5FF03B030BD00BFF7
:10A900000000000070B52DED068B43F2A4730546E0
:10A91000C058036884B0DB69F0EE409AB0EE60AADC
:10A92000F0EE41AAF0EE618A0E46B0EE429A9847E8
:10A930000446F8B19FED128A4FF07E5300936AEE01
:10A94000080A002329EE880A68462AEE881A03932B
:10A95000029301932BF002FA9FED0A0A05F571505C
:10A96000002369EE080A324628EE800A6946143050
:10A970000BF0C0FA204604B0BDEC068B70BD00BFE2
:10A9800035FA8E3C0000C84270B543F2A473064607
:10A99000C058036886B0DB690C469847054610B37B
:10A9A0009FED126AD4ED006A94ED017AD4ED027A3B
:10A9B000DFED0F0A012366EE866A27EE067A67EE60
:10A9C000C67A019306F5715000230093B0EE600A39
:10A9D0001A4603A91430CDED036A8DED047ACDED4E
:10A9E000057A0BF0DDFF284606B070BD0000C842B6
:10A9F00000000000454B37B5044640F8043B58F0D2
:10AA0000BFFC04F1200061F0C9FF04F10805404BD0
:10AA100040491D60284647F0CFFE3F4B019300940C
:10AA200002AB13E9060004F1580049F0F5FB04F508
:10AA300082701EF097F904F5816016F0CBFA04F5E8
:10AA4000AF601CF003FA04F5116027F085F804F6F6
:10AA5000384058F0DBFA04F6F84048F033FC04F6CE
:10AA6000A87058F099F904F6E47018F0A7FB04F503
:10AA700085506FF0CFF904F58550183049F0AAFFE2
:10AA800004F588501C3058F0CBFD41F2241300250A
:10AA9000E218E55404F58950204B14301A6043F055
:10AAA00059FA04F58C502946083015F00FF804F5D2
:10AAB000B350183068F01CFF04F5B45004305BF05C
:10AAC00045FD04F5B550103069F036FC04F5B5507D
:10AAD00014306CF0B5FF04F5BE500C306CF0A0F8EB
:10AAE00004F5BF500C306EF083FD41F64C03E55485
:10AAF0000B4D2B6813B10B4885F0F4FD20460A4935
:10AB000047F05AFE20462C6003B030BD50700E084E
:10AB1000506C0120D0F60D084DA70108C478012023
:10AB2000906D0120947F0D08906F0E0810B510F005
:10AB3000F5FE57F049F90368BDE810405B68184717
:10AB4000FFF7F4BF10B5044605F076FD204611F07E
:10AB5000D9FB204603F0FCFC2046BDE8104003F082
:10AB60005FBE0000FFF7EEBF70B500F52555383524
:10AB70000446284617F05EFD1CF03EFF90F9593060
:10AB800073B342F64C1304F5AF66E05838304DF01D
:10AB900039FD0346B7EE001A7620DFED120A93ED79
:10ABA000000A29F0E7F994F9EC35012B284608BF93
:10ABB00086ED210A002117F079FBDFED0B7A04F610
:10ABC000BC0494ED007A20EE270ADFED087AA7EEA8
:10ABD000270A304684ED000ABDE870401CF0E2BB55
:10ABE00070BD00BF00000000CDCCCC3D6666663F66
:10ABF000FFF7BABF10B50121044611F0DFFB60B1C9
:10AC000043F2A473054AD05803681B6A984720B9D9
:10AC10002046BDE8104002F0BFB810BDE029012079
:10AC2000FFF7E8BF38B50221044611F0C7FB68B151
:10AC30000121204611F0C2FB40B943F2A4734B4AF4
:10AC4000D05803681B6A984700287AD00221204612
:10AC500011F0B4FB002878D10121204611F0AEFBA1
:10AC6000002872D14FF40031204611F0A7FB10B13B
:10AC7000204602F007F94021204611F09FFB58B111
:10AC800004F51455343528464AF064FD94F9A83F7C
:10AC900013B128464AF074FE4FF48061204611F04B
:10ACA0008DFB20B104F5145034304AF0E3FD20212F
:10ACB000204611F083FB60B143F2A473E0580368AF
:10ACC0009B689847002844D120460CF027F80028BC
:10ACD0003FD18021204611F071FB00283FD14FF475
:10ACE0008021204611F06AFBC8BB4FF400212046AA
:10ACF00011F064FB98BB1021204611F05FFB98B166
:10AD000043F2785304F51455E0586FF0DFFE343504
:10AD100004F5D2510C3128464BF086FA04F5CC519B
:10AD20000C3128464BF01EFA4FF6FF71204611F009
:10AD300045FBD0B104F50B502C30BDE838407DF018
:10AD40004DBE204602F028F880E7204602F088F841
:10AD500088E743F27C53E05872F04CFBB9E704F506
:10AD6000145034304AF0CEFEC5E738BDE02901204A
:10AD7000FFF758BF10B50121044611F01FFB10B1B9
:10AD8000204602F06DF88021204611F017FB20B11B
:10AD900004F5145034304AF095FE2046BDE81040CA
:10ADA00002F03CBAFFF7E6BF10B5044605F07EFAA4
:10ADB000204605F0CDF8204605F06EFB204612F047
:10ADC0000FF92046BDE8104003F09EBBFFF7ECBF33
:10ADD00070B54FF6FF71044611F0F0FA30B142F64B
:10ADE00024130721E258204602F0B0F804F5195068
:10ADF00042F64C153830FEF7A9FB635993F86930D9
:10AE0000DBB904F58C50083014F0A4F92046FFF7A4
:10AE100083FA6059026804F5D453D669197841F66B
:10AE2000AE02A25CB04742F22C536059E358B3F92A
:10AE30000E20B3F90A1077F0C1FA57F0ADF92046A9
:10AE400012F0CCF842F62413034AE35CDB43C3F36D
:10AE5000C013537170BD00BFB56C0120FFF7B8BFC0
:10AE6000F8B500F59653083300F525561B68336294
:10AE700000F59653143300F58D571B687362044632
:10AE8000386800F58C40503029F034F842F66813E9
:10AE90003546E0502B46326AEA626A6A1A634FF618
:10AEA000FF71204611F08AFA30B13A682046092134
:10AEB000BDE8F84002F020B8F8BD000010B542F639
:10AEC0005C13C258002A52D042F62513C35CDB073C
:10AED0004DD500F52453012A93F825106FF3000196
:10AEE00083F8251042F22453C358B3F9083006EE14
:10AEF000103A00F52553B8EEC66A39D193ED087AB9
:10AF000042F22853C358B3F9083007EE903A00F5DF
:10AF10002553F8EEE77AD3ED095A65EEE76A67EE56
:10AF2000277A00F59652E6EE257A42F22453E6EEB1
:10AF3000076AC45892ED057A92ED026A27EE877A85
:10AF4000A6EE867ABDEEC77A17EE103A238192ED0F
:10AF5000027A67EE877A92ED057AE6EEC77A42F2D8
:10AF60002853C058FDEEE77A17EE903A038110BDE2
:10AF700093ED0B7A42F22853C358B3F9083007EE29
:10AF8000903A00F52553F8EEE77AD3ED0C5AC4E772
:10AF900010B504462DED028B79B1204610F00EFB62
:10AFA00042F6681240F2E631A3581B1A03F2F3137B
:10AFB0008B420DD8BDEC028B10BD42F65C13C3581A
:10AFC000022BF7D110F0DCFAB0F57A7FE5D2F1E789
:10AFD000A05000F58C405030642390FBF3F308EE52
:10AFE000103ADFED0B7AB8EEC88A28EE278AB0EE69
:10AFF000480AB6F0F1F804F5255383ED0B0AB0EEDC
:10B00000480AB6F05FFA04F5255484ED0C0AD1E73E
:10B0100035FA8E3C00F58C500121083015F0D8BC73
:10B0200010B5044600F5116027F0E0F843F27853BC
:10B03000E0580368DB6B9847204610F0D3F82046B1
:10B04000FFF7E8FF204605F099FA204604F00CFCD3
:10B05000204605F0CBFD204603F0CEFC204605F04F
:10B06000B1FC4FF6FF71204611F0A8F910B120464F
:10B0700001F0CAFF2046BDE8104049F04DBF000076
:10B0800010B5044610F0C4FC1021204611F096F9CA
:10B0900038B1204602F094F92046BDE810404AF04D
:10B0A000C5B810BDFFF7ECBFF8B50446274605F05C
:10B0B0000DFD234B47F83C3B224BA365224B2366F7
:10B0C000224BA3666465E465646604F1740018F0BD
:10B0D000C9FE04F18C00002518F0C4FE4FF6FF767F
:10B0E00004F1A40018F0BEFEA4F8B450A4F8B660B1
:10B0F000A4F8B86004F1BC0018F0B4FE144BC4F816
:10B100000851384613491F6047F056FB94F83D300C
:10B11000A4F86C6003F0F40365F3041384F83D3085
:10B120000123A4F8846084F83C5084F8BA5084F871
:10B130001051C4F8345184F838312046F8BD00BFAE
:10B14000A8D90D08F5A70108F9A70108FDA701086E
:10B150007C6C012038460E0810B5044618F082FEBB
:10B1600004F1100018F07EFE04F1200018F07AFEC1
:10B1700004F1300018F076FE204610BD2DE9F047AE
:10B180002DED028B044684B0FFF734FC864B236020
:10B1900004F5C650183002F0D3F904F5C55104F592
:10B1A0001450083134304BF019FD42F2C85204F506
:10B1B000C4531C33A35042F2CC53062204F517505B
:10B1C000E2541C304DF0CEF904F517503C304DF0F0
:10B1D000C9F942F2106342F27867012504F518506C
:10B1E000E550E619243057F0DFFA30467CF082FA59
:10B1F0006E4BE351301D46F093FC10B942F27C6374
:10B20000E55404F51B50083045F0CCFB42F21473B2
:10B21000674AE250E61804F51E5706F12805203764
:10B220002846143551F07AFFBD42F9D142F6D405D3
:10B2300006F5D47085F038F963191E229A80002231
:10B24000DA801A8140F2726019F018F9605104F541
:10B250002450083085F028F9564B1A6802B91E6050
:10B2600042F21473544AE25042F62C13002604F5BD
:10B270002450E6542E307AF00FFAB7EE008A04F527
:10B28000255383ED088A04F5255383ED0B8A4B4B38
:10B2900003934B4B0093029404AB04F5255013E940
:10B2A0000C004FF40071383016F062FF04F53A508C
:10B2B00024307EF0C9FC04F55450B0EE480A283022
:10B2C0004DF04CFA04F5555704F55450B0EE480AC9
:10B2D00008373C304DF04EF9384618F0C3FD43F2C4
:10B2E00058533849E150E21804F555530025DD6103
:10B2F0001D625D6204F555539D62DD621D6304F5B8
:10B300008C530833D36143F29153E65404F55656F7
:10B3100006F1300018F0A6FD4FF400437365B765E1
:10B3200014362949304647F047FA284B04F5575060
:10B330001C301E6063F016F904F5595043F2B066F4
:10B340003C3063F007FE04F55B57A01947F01AFE86
:10B3500004371F4BA351FF233B743B761D493846EE
:10B3600047F02AFA1C4B1E6816B11C4885F0BAF942
:10B3700004F55B5024301F6072F0B8FD184B194A79
:10B380001A6004F55E50334618279EB23146794361
:10B390000133515C0029F8D1134B1E80134B1E68FA
:10B3A00056B31348E2E700BFD0830D08307F0D0885
:10B3B000B4880E0808760120C4880D08F1A701089A
:10B3C00084830D0840CC0E08C4F70D08586C01208A
:10B3D0006C7F0D0848B30E085C7901208C830D0842
:10B3E000506D012074BF0D084C6D0120106D0120BF
:10B3F000AD830D08CDCC4C3D186004F55E501FEDBB
:10B40000030A14304DF0B6F843F6306843F2A473E3
:10B4100004EB080A43F2A87744F803A0E01905F00A
:10B4200055FB6D4BE35143F2E877E01905F04EFB15
:10B430006A4BE35104F5605004F566572430FFF77A
:10B4400033FE384682F0DAFA654B3B6004F56B5701
:10B45000384605F03BFB634B3B6043F6FC27E019A5
:10B4600005F034FB604BE35104F56D57384605F0A9
:10B470002DFB5E4B3B6087F83C6087F83D6004F530
:10B480006E57384605F022FB594B3B6043F6BC37FC
:10B49000E01905F01BFB574BE35104F56F5343F6DE
:10B4A000104704EB07099D63DD631D64484605F002
:10B4B0000DFB89F83C60504BE35143F6544904EBD3
:10B4C0000907384605F002FB4C4B44F8093087F871
:10B4D0003C6043F69447E01905F0F8FA484BE35115
:10B4E00043F6D047E01905F0F1FA464BE35143F635
:10B4F0001057E01905F0EAFA434BE35104F576538F
:10B5000043F6A4579D60DD60E519DFF814912846E5
:10B5100005F0DCFA44F80790012785F83C7085F8BF
:10B520003D6005F14000FFF717FE504605F0CEFAEA
:10B5300043F66C65354B44F80830601905F0C6FADF
:10B5400043F61C78324B635104F57A5004EB08053E
:10B5500028300DF0C3FF284605F0B8FA2D4B44F80B
:10B56000083085F83C6085F83D6043F66C7504EB67
:10B570000508404605F0AAFA88F83C60264B63515E
:10B5800043F6AC7804EB0805284605F09FFA44F82A
:10B59000089005F1400085F83C7085F83D60FFF7A4
:10B5A000DBFD1E4B44F8083004F5804085F88970B7
:10B5B0003C3009F001FB04F581407C300EF04CFE7C
:10B5C00042F648122046A35C43F00303A35404B0A0
:10B5D000BDEC028BBDE8F087D8D70D0848D80D0820
:10B5E00074DA0D0818DA0D08ACDA0D0818DB0D084E
:10B5F00084DB0D08E8DB0D08E0DD0D0844DE0D08F6
:10B6000014DF0D0878DF0D08E4DF0D086CE20D088B
:10B61000FCE10D08C0E50D08B8DE0D0890E10D084D
:10B6200028E10D0838B5054B1C6823680A461D68DB
:10B63000034B01462046A847002038BD586B012027
:10B64000E029012010B585F059FA064C064B186028
:10B650002046FFF793FD2046044A0549BDE8104007
:10B66000B5F032BCE0290120586B0120B0790120EF
:10B6700001A8010801207047FA20704741F65A03DB
:10B68000014AD05C704700BFE029012042F64C130C
:10B69000034AD05810B103681B6818470148704727
:10B6A000E0290120A4880D0842F65C13024AD05814
:10B6B000431E584258417047E029012042F65C136E
:10B6C000024AD058831E584258417047E029012051
:10B6D000F8B5C36943F4E053C361036A43F4E0532C
:10B6E0000362436A43F4E0534362044645F02EFA92
:10B6F000064620B190F90530002B40F08D80524D68
:10B7000043F2E463EB563BB1E36943F08003E3614A
:10B71000236A43F08003236242F62513EB5C5F0744
:10B7200007D5E36943F48033E361236A43F480334C
:10B73000236246485EF0BCF918B1E36943F08063C8
:10B74000E361434B1F682FB11921384647F0DCFEF7
:10B7500000286AD1E36943F4C043E36142F62C1345
:10B76000EA5C162A10D8012393403A4A1A40002A6C
:10B770004AD1394A134207D0226A636A42F4C0426E
:10B78000226243F4C043636230485EF099F918B115
:10B79000236A43F08063236242F62513EB5C58076B
:10B7A00008D542F64513EB5CD9075EBF636A43F4E4
:10B7B0008033636246B1336833B13379DA0742BF0D
:10B7C000636A43F04003636243F2E463EB561BB1E8
:10B7D00043F27073EB5C6BBB1C485EF07BF918B9ED
:10B7E000636A43F08063636242F2D053EB5CDB0731
:10B7F00029D5236A43F48073236227B3192138467D
:10B8000047F0A4FED8B9F8BD236A43F4005323627D
:10B81000636A43F40053B6E7E36943F04003E3612E
:10B82000236A43F04003236269E7E36943F48073CA
:10B83000E3618FE7636A43F080036362CCE7636A86
:10B8400043F480736362F8BDE02901202C44012099
:10B850005C6D012004A05000F8022F0070B54FF479
:10B86000FC700D46164618F00FFE32460446294677
:10B8700054F06CFA014B2360204670BDCC8A0D0851
:10B8800008B590F88C30994208DD49F031FE162257
:10B890004FF4802149F0E2FD002008BD243150F82A
:10B8A000210008BD08B590F88C30994208DD49F0B8
:10B8B0001FFE0F224FF4802149F0D0FD002008BD6B
:10B8C000243150F8210008BD002070470020704747
:10B8D000032070470E4B42F62C129A5C172A15D89B
:10B8E000012191400B4A0A40002A0CBF1022182265
:10B8F00042F64C1142F040005B5823B193F8693096
:10B900000BB142F0C00040F0010070471022EFE799
:10B91000E0290120F800AB0041F65C03014AD05C4D
:10B92000704700BFE029012041F67023024AD0563B
:10B93000003018BF01207047E029012041F65E0366
:10B94000014AD056704700BFE0290120704700002F
:10B9500007B542F64C130E4AD058B0B138304CF00F
:10B9600051FE0346B7EE001A7620DFED0A0A93ED8A
:10B97000000A28F0FFFADFED087A20EE270AFDEE34
:10B98000C07ACDED017ABDF9040003B05DF804FB87
:10B99000E0290120000000000000C8422DE9F04F1E
:10B9A000324FDFF8D080DFF8D0908BB0054600240E
:10B9B000E65DB8F9003006F1FF3A43FA0AF3D90719
:10B9C00034D5287C4EF0F0FA8346287C4FF0DEF91F
:10B9D000193083453CD2287C4DF0A2FD0BB0BDE868
:10B9E000F08F234B186803689B68984700F1680341
:10B9F000E3B1D3F800A0D3F804C0D9681A69D3F82A
:10BA000018E05B690893622301931923069107925A
:10BA1000287C009303AAC221CDF80CA0CDF810C059
:10BA2000CDF814E08DF824604EF0FCFA0134042CBB
:10BA3000BED1D3E70E4B18680368DB68D5E70C4B23
:10BA4000186803681B69D0E7D9F800309033CFE756
:10BA5000BAF1030FEAD801A353F82AF0E3B90108B9
:10BA600035BA01083FBA010849BA0108988B0D0898
:10BA7000585F0120984201205C5F012010B5044608
:10BA80007CF0BAFF20B12146BDE810407CF076BFC3
:10BA900010BD0000014807F081BA00BF0462012018
:10BAA00070B505460E461446114605487DF094FBD8
:10BAB000224631462846BDE8704053F079BE00BFAB
:10BAC000F04C0120F7B5104E42F64C15044650F0EC
:10BAD0002BFD705938B90D4A0621204603B0BDE848
:10BAE000F04050F037BC03681B6898470746705910
:10BAF00003685B6898473B460090054A062120464C
:10BB000050F028FC03B0F0BDE0290120A4880D0806
:10BB1000B4890D0838B504460D4684F00BFE42F694
:10BB20003813044AD05029462046BDE838404FF02B
:10BB30002DBE00BFE029012010B442F22052044C77
:10BB4000A35C0133A3545DF8044B4FF0A5BD00BFC7
:10BB5000E029012010B508460C4618F017FC28B162
:10BB60002146034802F008FC002010BD042010BD4F
:10BB70005C6B0120014802F01DBF00BFE0290120DD
:10BB8000014802F09BBE00BFE02901204FF026BB18
:10BB90004FF022BB08B54FF035FD40F6CD12002323
:10BBA0001043194308BD000010B5044618F072FC9C
:10BBB000204610BD38B50D4C42F62413E356002B39
:10BBC0000FDB43F2A475605903681B6B984750B9AB
:10BBD00060590368DB6A9847002814BF03200220DD
:10BBE00038BD012038BD042038BD00BFE029012048
:10BBF00038B5F7EE000A91ED050A04460D4628F027
:10BC0000B3F828B121460548BDE8384002F006BF28
:10BC100029462046BDE8384052F0EEBAE02901201E
:10BC20001FB5002301930293039313F0BBFD036838
:10BC300001A95B6F984728B101A82BF0D5FB05B08F
:10BC40005DF804FB1EF0B4FF90F84C32842202FB36
:10BC5000030090ED330AF2E708B5806A03681B6AB7
:10BC60009847B0F5005F28BF4FF4005080B208BD80
:10BC70000B7ADB0706D541F2B0220348CB68825825
:10BC80001344CB60704700BFE0290120044B1878B3
:10BC900028B942F62613034AD05CC0F380107047DF
:10BCA000546C0120E02901200B4B42F645129A5CAE
:10BCB000D10706D442F6A161595C11B912F01E0FEA
:10BCC00001D00520704742F624129B56002BB4BFCA
:10BCD00003200420704700BFE029012008B5084A6E
:10BCE00041F6AC03D356032B03D0BDE8084050F017
:10BCF00049BB044A022150F02DFB042008BD00BFBF
:10BD0000E0290120C4890D08094B41F674229A5894
:10BD1000920701D44FF054BA43F24C52DFED057A4A
:10BD20009B5800EE103AB8EEC00A20EE270A704782
:10BD3000E02901200AD7233C10B594B0044603A89B
:10BD400018F090F843F2A4731C4AD058036803A972
:10BD50009B6B984700282FD0002103A818F01EF9EC
:10BD600050B3247C84F0E6FC059B0893069BDDED34
:10BD7000047A099300230B930C930D930E930F9366
:10BD80001093119312934FF6F873F8EEE77A9FED44
:10BD90000C7AADF84C3000238DF84E30962367EEC8
:10BDA000877A019333230790009307AA57212046EF
:10BDB000CDED0A7A4EF036F914B010BDE02901201D
:10BDC0000AD7233C70B52DED088B4C4C43F2A4757B
:10BDD00006466059036896B0DB699847002848D04A
:10BDE00043F690439FED468AE35C012B45D104F571
:10BDF00056549FED440A206848302AF0A5FEB0EE64
:10BE000048AAF0EE409AB0EE609AF0EE418AF0EE69
:10BE100048AAB0EE48BA40F6F874357C84F08AFC43
:10BE200001238DF856308C23019333230990F1EED2
:10BE3000688AB1EE4AAA009309AA55212846CDED99
:10BE40000A9A8DED0B9ACDED0C8A8DED0DBACDEDE4
:10BE50000EAA8DED0FAA8DED108A8DED118A8DED54
:10BE6000128A8DED138A8DED148AADF854404EF090
:10BE7000D9F816B0BDEC088B70BD022B17D16359F1
:10BE80009FED200A5B69186800F5AC702AF05CFE33
:10BE9000F0EE488AB0EE40BAF0EE60AAB0EE41AAE9
:10BEA000B0EE489AF0EE489A40F6C774B5E704F54C
:10BEB00056539FED140A186848302AF045FE63591E
:10BEC0008DED030A5B69CDED040A18688DED051A46
:10BED000F0EE409A00F5AC709FED0A0AB0EE609A61
:10BEE000F0EE418A2AF030FE4FF47C64B0EE40BAA6
:10BEF000F0EE60AAB0EE41AA8FE700BFE029012072
:10BF0000000000000AD7233C2DE9F04142F625133A
:10BF10003E4D2DED068BEB5C99068EB006466FD537
:10BF200043F278539FED3A0AE8589FED3A8A3C3045
:10BF30002AF00AFE43F2A4738DED061AEC58CDEDFB
:10BF4000050A21EE081A23688DED040AFDEEC17A78
:10BF5000DB6BCDED037A204620EE889A60EE089ADE
:10BF600096F81080BDF90C70984707EE900AF8EE2D
:10BF7000E77A236867EE887A1B6CFDEEE77A204645
:10BF8000CDED037ABDF90C60984707EE900AF8EE04
:10BF9000678ADFED217A68EE888A43F27C53F4EEFB
:10BFA000E78AF1EE10FAE85858BFF0EE678A70F0B1
:10BFB00033FE2368B0EE40AA5B6C204698476AEED9
:10BFC000087A0023CDED097AFCEEE87A0A9317EEA1
:10BFD000903AADF83430B72320EE080A01931A23C3
:10BFE000009307AA3E214046CDED079A8DED089AB1
:10BFF0008DED0B0AADF83070ADF832604EF012F8EE
:10C000000EB0BDEC068BBDE8F08100BFE029012039
:10C010009F0CB3450AD7233C00FF7F4742F64C13E1
:10C02000024AD05808B190F868007047E029012012
:10C0300042F62C13014AD05C704700BFE029012072
:10C0400042F62513024AD05CC0F34010704700BF8F
:10C05000E029012070B543F2A4733C4D2DED028B15
:10C060000646E85891ED018A036888B0DB690C4602
:10C07000984740BBBDEEC88A18EE103ADB0722D4C1
:10C08000022008B0BDEC028B70BD43F2A473E858E7
:10C090000368DB699847044698B9022204212B48BB
:10C0A00005F08EF800284FD0DFED290A00942346D2
:10C0B000B0EE600A224604A926480AF013FC0028C4
:10C0C00042D00020DDE76169206928F049FA0028A4
:10C0D000D6D004A817F0C6FED4ED067A9FED1E7ADE
:10C0E00023690693F0EEE77AF4EEC77A6369079363
:10C0F000F1EE10FAC4DC03AA94F82010304653F095
:10C10000D5FC0028BCD09FED157AD4ED067A039AB1
:10C1100067EE877A04A8FDEEE77A17EE901A17F01B
:10C12000A7FE0F4904A818F03DF903460028A7D13F
:10C13000DFED070A00900246B0EE600A04A9054848
:10C140000AF0D0FB0028A0D104209AE7E0290120C2
:10C150000000000034660120001CA2470000C84215
:10C16000285F01208A8B202A82B004D0C02A1DD0EB
:10C1700002B053F03BBDD1ED007AF5EEC07AF1EE9E
:10C1800010FA16DD9FED0C7AF4EEC77AF1EE10FA94
:10C190000FD8FCEEE77A42F21232CDED017A074970
:10C1A0009DF804308B52002002B0704702B0FFF7B8
:10C1B00051BF0320F8E700BF00007F43E0290120C2
:10C1C00010B52DED028B8CB00023039304930593DF
:10C1D000044613F0E7FA036803A95B6F984758B366
:10C1E00013F0E0FA0368DB6E9847F0EE607A8DEDAD
:10C1F000060ACDED070AF1EE400AB1EE670A8DEDB1
:10C20000081A247CB5F08EFA06A8B0EE408A2BF00E
:10C21000EBF8089BDFED0A7A0B93012368EE277A8F
:10C2200001930C23009309AAA8212046CDED097A99
:10C230008DED0A0A4DF0F6FE0CB0BDEC028B10BD80
:10C24000E02E6542272973B505460FD007D8192976
:10C250000CD024290CD0284652F0ECFB18E03829E9
:10C260001ED0F8D3A1F13A03012BF4D801200FE03E
:10C2700090F8F63173B9FFF7EFFC0446287C4EF0D6
:10C2800085FD0C30844207D2287C4DF049F900200E
:10C2900002B070BD0024F1E72846FFF791FFE5E703
:10C2A000114B1E68002EE1D090F8F631D3B9FFF79C
:10C2B000D3FC0446287C4EF069FD263084424FF0C2
:10C2C0000004E1D302AA382122F8024D284651F099
:10C2D00029FA0028CAD0BDF80620297C304666F02D
:10C2E0000FF8C3E70024E5E758790120F0B52DEDFC
:10C2F000028B8B8BBD2B87B00D4600F0AF8036D8FC
:10C30000162B00F08F800FD8142B00F0B48000F2B1
:10C31000B580112B00F0AC80294607B0BDEC028B34
:10C32000BDE8F04054F04AB9732B00F0AA80B22B5C
:10C3300000F0CC80202BEFD1D1ED007AF5EEC07A61
:10C34000F1EE10FA40F3C0809FEDC07AF4EEC77AA8
:10C35000F1EE10FA00F2B880FCEEE77A42F2123207
:10C36000CDED037ABA499DF80C308B5274E04AF255
:10C370001142934200F00B812FD8B3F5967F00F065
:10C38000CE8040F6D812934200F0F180D12BC3D179
:10C39000D1ED017AFCEEE77ACDED037AD1ED007AAA
:10C3A000FCEEE77ACDED047AD1ED047A9DF8102009
:10C3B000FCEEE77ACDED057A9DF814300093D1EDCF
:10C3C000030A91ED020A9DF80C300146A0480EF0D8
:10C3D00069FE07B0BDEC028BF0BD4AF213429342F6
:10C3E00000F01981C0F0E7804AF26862934293D16D
:10C3F00098487CF055FA002866D0D5ED017AFCEE1D
:10C40000E77ACDED037A9DF80C30012B00F0A9807E
:10C41000C0F0A180022B57D195ED030A8D487CF026
:10C4200093FA19E0D1ED027A9FED937A91ED060A25
:10C43000874AF0EEE77AF4EEC77A43F2A473DFEDB1
:10C44000867AD058F1EE10FA4CBF0121002120EE7F
:10C45000270A10F0B1FBB8B30020BAE77F482DF0EF
:10C46000EFF888B302220321794804F0A9FEF2E72D
:10C4700002220521F8E702220621F5E7022209211E
:10C48000F2E7D1ED007AF5EEC07AF1EE10FA1BDB9F
:10C490009FED737AF4EEC77AF1EE10FA14D891EDAD
:10C4A000030ADFED757AB0EEC07AB4EEE77AF1EE0A
:10C4B00010FAB0EE678A00F10281F7EE000A27F069
:10C4C00053FC002840F0FB80042082E7D1ED017A84
:10C4D000F5EEC07AF1EE10FAF6DD91ED007ADFEDBF
:10C4E000616A9FED5D0A604BB4EEE67AF1EE10FAF8
:10C4F00005DD27EE800A186873F040FBACE7DFED3E
:10C500005B6A1868B4EEE67AF1EE10FA27EE800A5C
:10C5100002DD73F025FB9FE773F018FB9CE74C4CA2
:10C5200042F64C13E35893F86930002BCCD002222A
:10C530000321204604F044FE0028C5D001212046F6
:10C54000FDF77EFE43F66003E35C012B84D0434895
:10C550002DF062F880E742F2F8233D4A0020D054E3
:10C5600037E795ED020A3B487CF0DAF974E7D1ED44
:10C57000017A3F48FCEEE77ACDED037A9DF80C3066
:10C58000012B0CBF0021012166F020F864E7304840
:10C5900042F64513C35CDB073FF55EAF022205217F
:10C5A00004F00EFE00287FF457AF022228481146FF
:10C5B00004F006FE50E7264842F645130646C35CE3
:10C5C00013F001047FF448AF42F64C13C35893F8BC
:10C5D00069702FB9012211462648FDF7EFFC3BE7B1
:10C5E00042F624130222C356002B12DA052104F06E
:10C5F000E7FD00283FF430AF95ED000ADFED167A35
:10C6000043F2A473012120EE270AF05810F0D4FA67
:10C6100022E70921CCE70E4B42F64512985C10F058
:10C6200001047FF419AF42F64C129A5892F869202F
:10C63000002A3FF411AF42F624129A56002A1DDA5E
:10C64000012208210B48FDF76FFD05E700007F433D
:10C65000E0290120CC4C01200000C84240620120AA
:10C660000000B4439A993940605F01203333F33FAF
:10C67000A46001205850012000000034D1ED007A60
:10C680001FED037AF0EEE77AF4EEC77AF1EE10FAD6
:10C6900007D442F62C129B5C03F0EF03042B3FF40B
:10C6A000DBAE02221121124804F08AFD00283FF47B
:10C6B0007CAF40F6C4110F4807F004FCCCE6D5ED82
:10C6C000037AD5ED010A95ED000A0B48F4EEC87A1D
:10C6D000D5ED027AFDEEE77AF1EE10FACDED037AB0
:10C6E000ACBF012200229DF90C1001F0E5FDB3E67C
:10C6F000E0290120DC6401205C6B012008B591ED8C
:10C70000007AF6EE007AB4EEE77AF1EE10FA06DD82
:10C71000012205210348FDF707FD002008BD042084
:10C7200008BD00BF585001202DE9F0432DED028BCC
:10C730008A7A4B7A43EA0223CA7A43EA0243872B76
:10C740009FB006460C4600F2CA80862B80F0E5803A
:10C75000522B00F052810AD8002B00F0E380452BC9
:10C7600000F0ED802146304654F00EF8D5E0562B0F
:10C7700000F0EF816D2B00F0BC80542BF2D1CD780E
:10C78000352D28BF3525352200210EA8B7F026FD0E
:10C790002A4604F10C010EA8B7F0DCFC43F2A473A6
:10C7A000B94AD0580368DB699847002800F0B58083
:10C7B0009DF86C50012D03D0EB1F022B00F2AD80D1
:10C7C000BDF8684014F4E07F00F0A780002314F067
:10C7D00007070693079308931E4626D19FEDAB6A81
:10C7E0009DED107ADDED117ADDED0F6A27EE067A08
:10C7F00067EEC67A66EE866AA5F10803012BCDEDD9
:10C80000066A8DED077ACDED087A04D807AA06A945
:10C810009D48FDF72FFEEB1F022B06D89C4874F0B5
:10C820009BFE014606A82AF0AFF90A960B960C96D5
:10C8300014F038061CD19FED956A9DED137ADDED5D
:10C84000147ADDED126A27EE067A67EEC67A66EE96
:10C85000866AA5F10803012BCDED0A6A8DED0B7AEE
:10C86000CDED0C7A04D80BAA0AA98748FDF702FE81
:10C8700014F4806240F04B81DFED867A9DED180A5A
:10C8800020EE270ADFED817A083D012D20EE270AF0
:10C890008CBF0025012514F4006305BFDFED7D7A10
:10C8A000DDED190ADFED7F0A60EEA70A04BFDFEDB8
:10C8B000777A60EEA70A002F40F02D81002E40F01D
:10C8C0003B81B3FA83F35B090093B2FA82F30195DB
:10C8D0005B090AAA06A970480AF0A2F81DE0F32B2A
:10C8E00000F022820FD8952B00F01A82A62B7FF43D
:10C8F00039AF082164480FF061FD214602463046F9
:10C900004FF092FE09E0F62B07D0FFF42BAFA3F512
:10C910001C53113B022B3FF625AF1FB0BDEC028B21
:10C92000BDE8F083584CCA7941F65C03E35E9A4255
:10C93000F3D183F0FFFE42F63813E050EDE7524D9D
:10C94000CA7941F65C03EB5E9A42E6D1CA780B2ABB
:10C950004FF0000728BF0B220C310EA80F970E973F
:10C96000CDF83F70B7F0F6FB41F65A039DF8422030
:10C97000EB5E9A42D1D1BDF93C80B845CDDB83F066
:10C98000D9FE04468DE8900042F22451BDF93A20C8
:10C990009FED420A69584FF47A73304653F03EF9DE
:10C9A000012342F2285101930094BDF938209FEDF4
:10C9B0003B0A69584FF47A73304653F02FF98DE8EB
:10C9C000900042F22C519FED360A69583B46424690
:10C9D000304653F023F98DE8900042F230514FF485
:10C9E0007A73BDF93E209FED2D0A6958304653F009
:10C9F00015F942F63813EC508FE7CD78272D28BF74
:10CA00002725272200210EA8B7F0E8FB04F10C012E
:10CA10002A460EA8B7F09EFB1B4C43F2A473E058C5
:10CA20000368DB69984700283FF477AF9DF85E50B4
:10CA300015F0C00F7FF471AF41F67423E35803F093
:10CA40000403002B14BF012600262DD040F2224003
:10CA5000B7EE001AFFEE000A9DED160A27F08AFADB
:10CA60000F9B0A93109B0B93119B0C9385F0040270
:10CA7000129B0D93DDED150A07483346C2F3800281
:10CA80000AA909F037FA48E7E02901200000C84266
:10CA9000385F0120E02E6542346601200000FA4430
:10CAA00000007A44000000005FED020A9DED160AC6
:10CAB00040F22540B7EE001A27F05CFAF6EE000AC5
:10CAC000B0EE408A27F050F9F0B9F6EE007AB4EEF5
:10CAD000E78AF1EE10FA04F5565409DD78EE677A2C
:10CAE000236877EEA77A93ED080A27EE800AB7E766
:10CAF000236877EEC87A93ED090A77EEA77AB0EE4D
:10CB0000C00A20EE670AABE71FED1A0AA8E7002566
:10CB10001FED1C0ABFE6002E7FF4FFAE0121B3FA21
:10CB200083F3019100955B09B2FA82F252090AA9D6
:10CB3000934809F035FFF0E6B3FA83F3B2FA82F2D4
:10CB40008DE8A0005B09520906A98D4809F03EFE58
:10CB5000E3E6CD78352D28BF3525352200210EA8F6
:10CB6000B7F03CFB2A4604F10C010EA8B7F0F2FA2C
:10CB700043F2A473834AD0580368DB6998470028BE
:10CB80003FF4CBAEBDF8684014F4E07F3FF4C5AE8F
:10CB900006AD04F00707284617F064F94FBBDDF82F
:10CBA0003C80DDF840904046494627F0D9FC0028FB
:10CBB0003FF4B3AE03AA9DF86C10304652F076FFF6
:10CBC00000283FF4AAAE9FED707ADDED117A039B49
:10CBD000009367EE877A0AAEFDEEE77A4A4617EED3
:10CBE000903A4146304617F05DF996E80F0085E827
:10CBF0000F0014F480695BD19FED640A9DED188AE3
:10CC00009DF86C6028EE008A9FED5F0A083E012EB9
:10CC100028EE008A8CBF0026012614F4006805BFA8
:10CC2000DFED5A0ADDED198ADFED598A68EEA08A38
:10CC300008BFDFED550A04F0380408BF68EEA08A8B
:10CC4000002F39D1002C5BD1284617F03BF903287F
:10CC50003FF463AE002303A928460393049305938E
:10CC600017F0FCF900283FF458AE9FED476ADDED60
:10CC7000126A9DED137ADDED147A0196B8FA88F305
:10CC80005B0966EE866A27EE067A67EEC67A00933F
:10CC9000B9FA89F3CDED0A6A8DED0B7ACDED0C7AF8
:10CCA000F0EE680AB0EE480A5B090AAA03A912E688
:10CCB00000269FED378AB0E7002C7FF42EAE9FED63
:10CCC000326ADDED126A9DED137ADDED147A00967D
:10CCD000012366EE866A27EE067A67EEC67A01932E
:10CCE000B8FA88F3CDED0A6A8DED0B7ACDED0C7AAA
:10CCF000F0EE680A5B09B0EE480AB9FA89F215E766
:10CD0000B8FA88F3B9FA89F20096F0EE680A5B097E
:10CD1000B0EE480A52092946194809F0E3FDFCE53E
:10CD20001C4871F01BFAF8E5CD783D2D28BF3D2554
:10CD30003D2200210EA8B7F051FA04F10C012A4659
:10CD40000EA8B7F007FA0E9C44B90F9B33B9109B9D
:10CD500023B901210B4801F02DFEDEE50AA817F0EA
:10CD600081F80F9B0D930A22109B064893FBF2F368
:10CD70000AA901220C940B9301F0A0FDCDE500BFA0
:10CD800034660120E02901200000C842E02E6542FF
:10CD900000000000C4600120F0B543F2785604465C
:10CDA00080599FED2E0A8BB03C3029F0CDFE0AAAA7
:10CDB000CDED080A8DED091A8DED070A12E907007D
:10CDC00001AD85E8070004AB9DED030A83E8070089
:10CDD00027F066F804F58C50294608308DED030ADB
:10CDE00043F27C5711F07CFF42F64C1142F2746022
:10CDF00061582058E359A25912F06CF84FF4805151
:10CE000020460FF0DBFA30B3A05903689B689847BF
:10CE100004F51455343500F16802A221284649F082
:10CE20002FF9A0590368DB689847A32100F1680235
:10CE3000284649F025F9A05903681B699847A421A1
:10CE400000F16802284649F01BF9E259A521903209
:10CE5000284649F015F90BB0F0BD00BF9F0CB34553
:10CE600010B5044604F58C5413F0DAFF083413F0BF
:10CE7000D3FF204611F0A2FE2046BDE8104011F07D
:10CE8000C7BF000070B51B2588B004462A460021A4
:10CE900001A8B7F0A3F9A3238DF8043095238DF8EA
:10CEA000053006238DF8063083F04CFC42F64C1614
:10CEB000CDF80700A059CDF80B10D0F8D830CDF838
:10CEC0000F30CC304BF09EFB0368CDF8133004F5E7
:10CED0003053203304F514501B68CDF81730A35994
:10CEE0002A46D3F8DC30CDF81B3001A9343049F0A4
:10CEF0003FFF08B070BD00007FB50E464FF6FF71D2
:10CF0000044615460FF05AFAE8B11022002168468F
:10CF1000B7F064F9A3238DF8003095238DF8013024
:10CF200003238DF8023083F00DFCCDF8030004F5E7
:10CF30001450CDF807101022694634308DF80B607C
:10CF4000039549F067FF04B070BD00007FB50E4641
:10CF50004FF6FF71044615460FF030FAE8B1102283
:10CF600000216846B7F03AF9A3238DF800309523E5
:10CF70008DF8013004238DF8023083F0E3FBCDF807
:10CF8000030004F51450CDF8071010226946343020
:10CF90008DF80B60039549F03DFF04B070BD0000B3
:10CFA00070B52DED048B182486B0224605460E463A
:10CFB00068460021B0EE409AF0EE608AB0EE418AF9
:10CFC000B7F00CF9A3238DF8003095238DF80130CC
:10CFD00007238DF8023083F0B5FBCDF8030005F58B
:10CFE0001450CDF807102246694634308DF80B6096
:10CFF0008DED039ACDED048A8DED058A49F0B8FEDA
:10D0000006B0BDEC048B70BD2DE9F04142F648132B
:10D0100090F83124C15C382303FB0202044692F8E5
:10D02000593401F0010123B192F85A340BB192F84E
:10D030005B34994210D042F64815625D63F30002FA
:10D0400062554AF061FC635D13F0010F0CBF0422CE
:10D05000002212214AF0D6FB42F6481504F5AF68CB
:10D060004FF000014046665D1AF00CF87C27C0B214
:10D0700007FB0040C6F3400690F80136B34218D0D3
:10D080004FF00001404619F0FDFFC0B207FB004021
:10D09000635D90F8012662F3410363554AF034FC66
:10D0A000635D13F0020F0CBF0422002203214AF03B
:10D0B000A9FB42F6481294F85013A35CC3F3810015
:10D0C000884209D061F38303A3544AF01DFC432135
:10D0D000BDE8F0414AF076BBBDE8F08130B52DEDFA
:10D0E0000A8B2F248DB02246054600216846B0EEFB
:10D0F00040CAF0EE60BAB0EE41BAF0EE61AAB0EE0E
:10D1000042AAF0EE629AB0EE439AF0EE638AB0EE75
:10D11000448AB7F063F8A3238DF8003095238DF887
:10D1200001300B238DF8023083F00CFB1CEE103A1B
:10D13000CDF80B301BEE903ACDF80F301BEE103AC5
:10D14000CDF813301AEE903ACDF817301AEE103AA7
:10D15000CDF81B3019EE903ACDF81F3019EE103A89
:10D16000CDF8233018EE903ACDF80300CDF82730F3
:10D1700005F5145018EE103ACDF80710224669460E
:10D180003430CDF82B3049F0F3FD0DB0BDEC0A8BF7
:10D1900030BD000070B52DED088B28248AB02246E2
:10D1A00005460E4668460021B0EE40BAF0EE60AA91
:10D1B000B0EE41AAF0EE619AB0EE429AF0EE628AC9
:10D1C000B0EE438AB7F00AF8A3238DF80030952318
:10D1D0008DF801300C238DF8023083F0B3FACDF8CE
:10D1E000030005F51450CDF8071022466946343087
:10D1F0008DF80B608DED03BACDED04AA8DED05AA77
:10D20000CDED069A8DED079ACDED088A8DED098A50
:10D2100049F0AEFD0AB0BDEC088B70BD30B543F2ED
:10D22000E463C518C35695B00446002B5CD00023B8
:10D23000694628460493059306930093019302934D
:10D24000039370F05FFF02A9284670F071FF04A9F4
:10D25000284670F047FF3222002107A8B6F0BEFF33
:10D26000A3238DF81C3095238DF81D3009238DF8EC
:10D270001E3083F067FA43F27073CDF81F00E35C51
:10D28000CDF8231028468DF8273070F0EBFE009B78
:10D29000CDF82930019BCDF82D30029BCDF83130EF
:10D2A000039BCDF83530049BCDF83930059BCDF884
:10D2B0003D30069BCDF8413043F210738DF82800C5
:10D2C000E358CDF8453043F23C7304F51450E3586D
:10D2D000CDF8493043F2E7633222E35C8DF84D30FC
:10D2E00007A9343049F044FD15B030BD2DE9F041B7
:10D2F00024268AB0154607463246884601A80021F2
:10D300001C46B6F06BFFA3238DF8043095238DF8EF
:10D3100005300A238DF8063083F014FA2B68049345
:10D320006B680593AB6806932368CDF807000793F5
:10D3300007F514506368CDF80B1008933246A368C4
:10D340008DF80F8001A93430099349F011FD0AB01E
:10D35000BDE8F081F8B542F64C16044600F51455C8
:10D36000805903681B6898470746A05903685B68A3
:10D370009847343503463A4628460B4949F04AFE59
:10D3800041F64C032846E25C42F62C13E15C49F07E
:10D3900063FE04F58C50083012F0B4F804F5827086
:10D3A000BDE8F8401CF0A4BBB4890D0800F514508A
:10D3B0009622024934304AF0B5B800BFDC8B0D0824
:10D3C0002DE9F0412DED028B43F2A4730446C058C1
:10D3D000DFED4C8A036892B0DB689847002700288D
:10D3E00040F08C8043F27C53E358D3ED527A87EEC1
:10D3F000A88AD3ED5B7AFDEEE77ACDED017ABDF92F
:10D40000046004F5185808F1100803A940460EF00E
:10D41000A5FD18B94AF078FA3B4B03933722002157
:10D4200004A8B6F0DBFEA3238DF8103095238DF809
:10D43000113083F087F942F64C1543F27853CDF85A
:10D440001300E3586059D3F8AC20D3F8B030CDF8CE
:10D4500017103830CDF81B20CDF81F304BF0D2F824
:10D460000346B7EE001ADFED290A93ED000A762095
:10D4700026F080FD10EE103A6059CDF82330036895
:10D48000DB68984710EE103A04F55555CDF8273073
:10D49000183518EE103A2846CDF82B3074F060F8A5
:10D4A00080EE280A404610EE103ACDF82F3043F2B5
:10D4B0002453E358CDF83330039BCDF837300EF0CA
:10D4C0005FFD10EE103A2846CDF83B30CDF83F70A6
:10D4D000ADF8436074F048F8FDEEC07A04F51450DE
:10D4E00017EE903A372204A93430ADF8453049F0B0
:10D4F0003FFC12B0BDEC028BBDE8F081002608EEC7
:10D50000107A7EE70000C8422292CA7F0000000025
:10D51000B0F900309FED097A01805B1A07EE903A6E
:10D52000F8EEE77AF0EEE77AF4EEC77AF1EE10FA69
:10D530004CBF0121002144F0F1B900BF00000034CC
:10D54000F8B5334D45600446083066F00BFF04F132
:10D5500060005FF0B9F80023C4F88030C4F884306C
:10D56000C4F888302B4AC4F8A8302B4BC4F8A0204C
:10D57000C4F8AC304FF08042284BC4F8B03005F509
:10D580009061C4F8A42004F1B40078F0E9FF04F538
:10D59000BA705CF04FF804F5D67054F0DBFA204F07
:10D5A000204BC4F8AC3104F5E4760025701953F033
:10D5B0001DFD77512835B5F5207FF7D104F5896039
:10D5C00054F00CFF002104F5166078F0EDFB164DC9
:10D5D00004F614207BF054F9C4F8345A04F63820C9
:10D5E0007BF034FDA5F2BC63C4F8C03A04F6CC204D
:10D5F00061F030FAA5F5CA73C0352046C4F8203C66
:10D60000C4F82C5C094945F0D7F82046F8BD00BFA6
:10D61000183601200000C8410AD7233C0000E04032
:10D620005CD20D0874D20D081C6A0120E8BB0D08FD
:10D63000F0B52DED028B604C60499FED618AADF530
:10D64000437D0746902232A8B6F084FD0FCC16AD7C
:10D650000FC50FCC0FC594E80F0004F5987685E848
:10D660000F0004F110014FF490727AA8B6F072FD29
:10D670000FCE06AD0FC596E80F0004F5A87485E837
:10D680000F000FCC22AD0FC50FCC0FC50FCC0FC5AF
:10D6900094E80F0085E80F0041F6AE03DFED497A0C
:10D6A000FB5C013B022B88BFB0EE678A002432ABE3
:10D6B00018190021B0EE480A103444F0A3FC902C55
:10D6C000F5D100219FED400A16A844F09BFC0021F3
:10D6D0009FED3D0A1AA844F095FC00219FED3A0AFF
:10D6E0001EA844F08FFC00247AAB18190021B7EE75
:10D6F000000A103444F086FCB4F5907FF4D1002188
:10D700009FED320A06A844F07DFC00210AA89FED97
:10D710002F0A44F077FC2E4B0FCB02AC84E80F00AD
:10D7200001A9204644F03EFC90B19DF904309FEDE4
:10D73000297AE06807EE903AF8EEE77AB0EE000A50
:10D74000A7EE870AF7EE007A87EE800A45F004FB21
:10D75000002422AB181900211034B7EE000A44F05F
:10D7600051FC402CF5D190221B4956A8B6F0F2FC92
:10D77000002456AB181900220121103444F0D4FCC7
:10D78000902CF6D1154D0FCD0EAC0FC495E80F00BF
:10D7900084E80F000EA80022012144F0C5FC0022FD
:10D7A000012112A844F0C0FC54F060FC0DF5437D4B
:10D7B000BDEC028BF0BD00BFB0760D0820760D08E1
:10D7C0006666663F5C8FA23F530469396F12833AE5
:10D7D00060780D08CDCCCC3D70780D0800790D082F
:10D7E0002DE9F04391B00DF106011D2054F04CFDE0
:10D7F000002800F099809DF806305C4A0133DBB2C6
:10D8000011210BA88DF8063082F066FE00220DF182
:10D8100007010BA843F06EFF9DF80630544A112112
:10D8200006460BA882F058FE00220DF107010BA856
:10D8300043F060FF9DF806304E4A112107460BA8C1
:10D8400082F04AFE00220DF107010BA843F052FFBF
:10D850009DF80630484A03F03F03112180460BA88B
:10D8600082F03AFE00220DF107010BA843F042FFBF
:10D870000546002E58D0002F56D0B8F1000F53D0D7
:10D88000002851D0304644F0DFF800284CD138460B
:10D8900044F0DAF8002847D1404644F0D5F8002893
:10D8A00042D1284644F0D0F800283DD1334C94E8CA
:10D8B0000F000DF10C0E10348EE80F0094E80F00ED
:10D8C0000DF11C0989E80F0002A9704644F06AFBBB
:10D8D00008B9002401E0BDF9084002A94846A4B2F5
:10D8E00044F060FB00283BD0BDF80810FCB9D9B16A
:10D8F00040F2E2448C420FFA81F924B21DDC494621
:10D900003846FFF705FE21463046FFF701FE214667
:10D910004046FFF7FDFDB5F900302BB100232B8009
:10D920000121284643F0FAFF11B0BDE8F08340F230
:10D93000D663002908BF1946DCE721463846FFF7C1
:10D94000E7FD49463046FFF7E3FD49464046FFF70D
:10D95000DFFDB5F90030012BE6D001212980E0E799
:10D96000002CE1D040F2D661C4E700BF3CBF0D08F7
:10D9700048BF0D0854BF0D0861BF0D0820790D0880
:10D9800073B5002206460DF107011E4843F0B2FEB2
:10D990000546A0B344F058F888BB9DF80730032B28
:10D9A0002DD141F69603F356022B01D0102405E049
:10D9B000B7EE000A144845F037FA112441F6840303
:10D9C000F356022B06D1B7EE000A104844F00204C9
:10D9D00045F02AFA2B689FED0E7A2C601B1B07EE90
:10D9E000903AF8EEE77A2846F0EEE77AF4EEC77A56
:10D9F000F1EE10FA4CBF0121002143F08FFF02B07D
:10DA000070BD00BFDD7C0D088CC80D089AC80D08DC
:10DA100000000034F8B5044643F070FC2A4A40B9CF
:10DA200013682A49986B03681B689847284882F056
:10DA300059FE04F58C53156893F888106FF3820132
:10DA400083F8881041F65807E86C0021E61923F0A6
:10DA500013FA304644F026FE18B3E35F782B20D14A
:10DA600082F066FE064644F0A3FD0022102119480C
:10DA700044F05AFB2046FFF7B3FE2046FFF780FF35
:10DA8000AC6B23681D6882F053FE1349821B20464D
:10DA9000A84744F0A3FF114A138843F00103138001
:10DAA000F8BDA86B0E4903681B68984754F072FDD7
:10DAB00043F090F830467821FFF72AFDA86B09491A
:10DAC00003681B689847CBE7586B0120E0BE0D0840
:10DAD000EFBE0D08E8BA0D08FDBE0D08406D01202F
